S00E00005445524D30332E737265637B
S113000045C00000B9C000005EC000005CC0000034
S11300105AC0000058C0000056C0000054C0000080
S113002052C0000050C000004EC00000D3C0000009
S11300304AC0000048C0000046C0000044C00000A0
S113004043C0000040C000003EC000003CC00000AF
S11300503AC0000038C0000036C0000034C00000C0
S113006032C0000030C000002EC000002CC00000D0
S11300702AC0000028C0000026C0000024C00000E0
S113008022C0000020C000001EC0000011241FBEBA
S1130090CFEFD0E1DEBFCDBF11E0A0E0B1E0ECE1F5
S11300A0FCE000E00BBF02C007900D92AE30B10738
S11300B0D9F721E0AEE0B1E001C01D92A132B20750
S11300C0E1F72BD2A9C59CCF1F920F920FB60F92C6
S11300D011242F933F934F935F936F937F938F9349
S11300E09F93AF93BF93809116019091170101964E
S11300F0909317018093160180911501813059F571
S113010040911601509117019A013695279536951D
S1130110279536952795A5ECB0E25BD59295829507
S11301208F7089279F70892768EE73E0869F9001FE
S1130130879F300D969F300D1124421B530B413085
S1130140510549F480911101909112010197909306
S113015012018093110186E082BFBF91AF919F91FC
S11301608F917F916F915F914F913F912F910F905C
S11301700FBE0F901F9018951F920F920FB60F92FB
S113018011248F9380911501813049F018F0823049
S1130190B9F01AC081E080931501D89815C0109267
S11301A0150181E08BBB109214011092130110927F
S11301B0120110921101109217011092160104C03D
S11301C01092150181E08BBB8F910F900FBE0F90A1
S11301D01F9018951F920F920FB60F9211248F93B0
S11301E09F9380911801813069F486B597B59093F7
S11301F01C0180931B018EB58F7B8EBD82E08093A2
S113020018010EC0823061F486B597B590931A0137
S11302108093190187B78F7D87BF83E0809318018E
S11302209F918F910F900FBE0F901F901895609122
S1130230190170911A0180911B0190911C01681B96
S1130240790B660F771F660F771F80E090E095D3D8
S113025020E030E048E652E428C3089540911601B6
S1130260509117019A01ADECBCECB3D496958795E7
S113027096958795969587959C01220F331F880F35
S1130280991F880F991F880F991F820F931F481772
S1130290590791F480911101909112016AE070E084
S11302A085D480930E019927FC01EC5FFE4F808179
S11302B085BB88E08093620040911601509117013C
S11302C09A01ADECBCEC85D4969587959695879567
S11302D0969587959C01220F331F880F991F880FCD
S11302E0991F880F991F820F931F481B590B423087
S11302F05105B1F480911101909112012AE030E08E
S1130300B90154D4CB01B90151D480930E0199277A
S1130310FC01EC5FFE4F808185BB84E0809362002A
S113032040911601509117019A01ADECBCEC51D4E7
S11303309695879596958795969587959C01220F16
S1130340331F880F991F880F991F880F991F820FD9
S1130350931F481B590B4430510591F480911301AC
S1130360909114016AE070E021D480930E019927E2
S1130370FC01EC5FFE4F808185BB82E080936200CC
S113038040911601509117019A01ADECBCEC21D4B7
S11303909695879596958795969587959C01220FB6
S11303A0331F880F991F880F991F880F991F820F79
S11303B0931F481B590B46305105B1F4809113012A
S11303C0909114012AE030E0B901F0D3CB01B901D6
S11303D0EDD380930E019927FC01EC5FFE4F8081E1
S11303E085BB81E08093620008952FEF81EE94E055
S11303F0215080409040E1F700C0000011BA81E034
S113040082B913B88EB583608EBD8EB580648EBDFF
S1130410109218018FEF84BB9FE09093610017BA8C
S11304208ABBEAE6F0E080818260808389B78160DC
S113043089BF83B7846083BF87B7816087BF86E045
S113044082BF789480E090E0A8E4B2E480931D0138
S113045090931E01A0931F01B0932001D89A089590
S11304608F929F92AF92BF92CF92DF92EF92FF92C0
S11304708091180181111CC0189A85E38A95F1F7BF
S1130480000018988AE18A95F1F700C081E0809312
S1130490180110921C0110921B0110921A01109263
S11304A019018EB580648EBD87B7806287BF2CC06A
S11304B0833051F5C0901D01D0901E01E0901F01C2
S11304C0F0902001B4DE4B015C0123E333E343E30A
S11304D05FE3C701B60107D36B017C012AE939E95F
S11304E049E95EE3C501B401FED29B01AC01C70139
S11304F0B60173D160931D0170931E0180931F0197
S11305009093200110921801FF90EF90DF90CF900C
S1130510BF90AF909F908F90089567DF0F2EC12CEE
S1130520D12CF6ECEF2EF2E4FF2EF02D0CE310E0CC
S11305306894BB24B1F8D1E0C4E692DF60911D0158
S113054070911E0180911F019091200120E030E004
S113055048EC52E4C4D2181644F4C0921D01D0925F
S11305601E01E0921F01F092200160911D01709123
S11305701E0180911F019091200120E030E040E8AD
S11305805FE38FD1882364F480E090E0A0E8BFE3C8
S113059080931D0190931E01A0931F01B09320012D
S11305A05DDE80911501813099F120F0823009F4EB
S11305B05BC0EDC086B38073803141F48091020149
S11305C090910301C09709F005C1F0C086B3807310
S11305D0803239F48091020190910301C09709F4AB
S11305E0EFC0DBBB8091110190911201CC9721F4F3
S11305F01092120110921101809113019091140133
S1130600CC9709F0C4C01092140110921301BFC01A
S11306108091130190911401892B89F48091110127
S113062090911201892B09F0B2C0B09215018BB3DD
S1130630837C8BBB80911501813009F0A8C0809127
S1130640110190911201892B09F0A1C0109312019C
S113065000931101809113019091140101979093DB
S113066014018093130193C0809116019091170196
S113067080FF02C0D99A01C0D998409116015091C7
S113068017019A01ABEABAEAA4D2969587959C0120
S1130690220F331F820F931F481B590B4130510502
S11306A021F48BB38B7E8BBB03C08BB384618BBB78
S11306B060911D0170911E0180911F019091200194
S11306C020E030E040EA51E4ECD088230CF05FC035
S11306D040911601509117019A0136952795369548
S11306E02795ABE7B4E175D296958795C89F90019D
S11306F0C99F300D1124421B530B4330510549F45B
S113070080910F01909110010196909310018093B4
S11307100F0180910F019091100101978B3B924042
S113072018F48BB388628BBB80910F0190911001F8
S11307308D5B92408730924008F4DB9880911601DB
S11307409091170180FF04C08BB386618BBB03C0FB
S11307508BB3897E8BBB82DD80910F019091100158
S1130760853C94400CF4B4CF1092100110920F0108
S11307708BB3877D8BBB80E090E0A0EAB1E48093EB
S11307801D0190931E01A0931F01B093200186B315
S1130790807390E0909303018093020186B3807389
S11307A090E09093010180930001C7CE80911301E2
S11307B0909114010196909314018093130106CF34
S11307C080911101909112010196909312018093EE
S11307D0110107CF86B305CF5058BB27AA270ED0E7
S11307E044C135D130F03AD120F031F49F3F11F4B7
S11307F01EF42AC10EF4E095E7FB20C1E92F46D18F
S113080080F3BA17620773078407950718F071F429
S11308109EF55EC10EF4E0950B2EBA2FA02D0B01B0
S1130820B90190010C01CA01A0011124FF27591B31
S113083099F0593F50F4503E68F11A16F040A22F37
S1130840232F342F4427585FF3CF469537952795A8
S1130850A795F0405395C9F77EF41F16BA0B620BA7
S1130860730B840BBAF09150A1F0FF0FBB1F661FEE
S1130870771F881FC2F70EC0BA0F621F731F841F31
S113088048F4879577956795B795F7959E3F08F057
S1130890B3CF9395880F08F09927EE0F9795879516
S11308A00895A8D008F481E008950CD0DEC0D6D015
S11308B040F0CDD030F021F45F3F19F0BFC05111AA
S11308C008C1C2C0E3D098F39923C9F35523B1F307
S11308D0951B550BBB27AA2762177307840738F0AB
S11308E09F5F5F4F220F331F441FAA1FA9F333D00A
S11308F00E2E3AF0E0E830D091505040E695001CBE
S1130900CAF729D0FE2F27D0660F771F881FBB1F79
S1130910261737074807AB07B0E809F0BB0B802D53
S1130920BF01FF2793585F4F2AF09E3F510568F09F
S113093085C0CFC05F3FECF3983EDCF38695779596
S11309406795B795F7959F5FC9F7880F911D9695A1
S1130950879597F90895E1E0660F771F881FBB1FFD
S1130960621773078407BA0720F0621B730B840BAA
S1130970BA0BEE1F88F7E0950895E89409C097FB39
S11309803EF490958095709561957F4F8F4F9F4F62
S11309909923A9F0F92F96E9BB279395F6958795A6
S11309A077956795B795F111F8CFFAF4BB0F11F469
S11309B060FF1BC06F5F7F4F8F4F9F4F16C0882310
S11309C011F096E911C0772321F09EE8872F762F46
S11309D005C0662371F096E8862F70E060E02AF087
S11309E09A95660F771F881FDAF7880F9695879573
S11309F097F90895990F0008550FAA0BE0E8FEEF48
S1130A0016161706E807F907C0F012161306E407CE
S1130A10F50798F0621B730B840B950B39F40A26C7
S1130A2061F0232B242B252B21F408950A2609F4A5
S1130A30A140A6958FEF811D811D089597F99F67A9
S1130A4080E870E060E008959FEF80EC0895002452
S1130A500A941616170618060906089500240A941F
S1130A6012161306140605060895092E0394000CA5
S1130A7011F4882352F0BB0F40F4BF2B11F460FF34
S1130A8004C06F5F7F4F8F4F9F4F089557FD90585D
S1130A90440F551F59F05F3F71F04795880F97FB3E
S1130AA0991F61F09F3F79F08795089512161306F8
S1130AB01406551FF2CF4695F1DF08C01616170627
S1130AC01806991FF1CF869571056105089408955C
S1130AD0E894BB2766277727CB0197F908958ADF27
S1130AE008F48FEF08950BD0C0CFB1DF28F0B6DF44
S1130AF018F0952309F0A2CFA7CF1124EACFC6DFBF
S1130B00A0F3959FD1F3950F50E0551F629FF0011C
S1130B10729FBB27F00DB11D639FAA27F00DB11D75
S1130B20AA1F649F6627B00DA11D661F829F2227FE
S1130B30B00DA11D621F739FB00DA11D621F839F85
S1130B40A00D611D221F749F3327A00D611D231F5B
S1130B50849F600D211D822F762F6A2F11249F57A9
S1130B6050408AF0E1F088234AF0EE0FFF1FBB1FCC
S1130B70661F771F881F91505040A9F79E3F51056B
S1130B8070F05CCFA6CF5F3FECF3983EDCF3869524
S1130B9077956795B795F795E7959F5FC1F7FE2B16
S1130BA0880F911D9695879597F9089597FB072EC1
S1130BB016F4009406D077FD08D01AD007FC05D0AF
S1130BC03EF4909581959F4F0895709561957F4F60
S1130BD00895A29FB001B39FC001A39F700D811D12
S1130BE01124911DB29F700D811D1124911D089532
S1130BF0AA1BBB1B51E107C0AA1FBB1FA617B7073F
S1130C0010F0A61BB70B881F991F5A95A9F780955A
S10F0C109095BC01CD010895F894FFCF2D
S1110C1C3000300077413B5B4D5E7C437F4FE0
S9030000FC
